:020000040800F2
:10000000C8FB0020A9010008C7230008051C000840
:10001000C5230008EB030008FD2B000800000000CA
:10002000000000000000000000000000052400089F
:100030007F04000800000000E923000807240008EE
:10004000C3010008C3010008C3010008C301000880
:10005000C3010008C3010008C3010008C301000870
:10006000C3010008C3010008C3010008C301000860
:10007000C3010008C3010008C3010008C301000850
:10008000C3010008C3010008C3010008C301000840
:10009000C3010008C3010008C3010008810400086F
:1000A000C3010008C3010008C3010008C301000820
:1000B000012500081D250008C3010008C301000830
:1000C000C3010008C3010008C3010008C301000800
:1000D000C3010008C3010008DD2A0008C3010008AD
:1000E000C3010008C3010008C3010008C3010008E0
:1000F000C3010008C3010008C3010008C3010008D0
:10010000C30100080000000000000000C301000857
:10011000C3010008C3010008C3010008C3010008AF
:10012000C3010008C3010008C3010008C30100089F
:10013000C3010008C3010008000000000000000027
:10014000C3010008C3010008C3010008000000004B
:10015000000000000000000000000000000000009F
:10016000C3010008C3010008C3010008C30100085F
:10017000C3010008C3010008C3010008C30100084F
:10018000C3010008C30100080000000000000000D7
:10019000C3010008DFF80CD000F0F8F80048004771
:1001A000CD310008C8FB00200648804706480047BC
:1001B000FEE7FEE7FEE7FEE7FEE7FEE7FEE7FEE717
:1001C000FEE7FEE79924000895010008202A04DBD9
:1001D000203A21FA02F00021704721FA02F3D040C0
:1001E000C2F1200291400843194670470649074A68
:1001F0000868504343F239021044086040087047D1
:100200000149086070470000900000206D4EC64113
:100210002DE9F04791460F4680460446002614F823
:10022000015B2DB100F05EF80068405DC007F6D1BB
:100230002B2D02D02D2D18D0641E4A46394620465B
:1002400000F054F827B13968A14201D1C7F8008005
:1002500071054FF002040BD54042002803DD02F087
:10026000DFFC0460A007BDE8F08746F48066E4E7A1
:100270000028F8DA02F0D4FC04606FF00040F2E7E6
:100280002DE9F05F0546002092469B4688460646CB
:10029000814640241BE02846414647462246FFF758
:1002A00095FF53465A46C01A914110D3114618463D
:1002B000224600F07DF82D1A67EB01084F462246D2
:1002C0000120002100F074F817EB00094E41201EB8
:1002D000A4F10104DFDC484631462A464346BDE826
:1002E000F09F000000487047B83600082DE9F05F25
:1002F00082460078002715468B460AF10104B9466C
:10030000302801D09DB113E014F8010B01277828A3
:1003100003D0582801D045B10AE00DB1102D07D106
:100320000027102514F8010B02E0082500E00A253B
:100330000026B0460EE005FB080005FB06F101278C
:1003400001EB10461FFA80F8B6F5803F00D3B9469E
:1003500014F8010B294600F03AF80028EBDABBF15B
:10036000000F05D00FB1641E00E05446CBF80040EA
:10037000B9F1000F06D002F053FC02210160C81E43
:10038000BDE8F09F48EA0640FAE70000064C074D3A
:1003900006E0E06840F0010394E807009847103455
:1003A000AC42F6D3FFF7FAFE743A0008943A00081C
:1003B000202A04DB203A00FA02F100207047914025
:1003C000C2F1200320FA03F31943904070473A2802
:1003D00000D2303820F02002412A01D3A2F13700A8
:1003E000884201D34FF0FF307047FEE730B500235D
:1003F00007E001EB8304056824684FEA34442C606D
:100400005B1CB3EB520FF4D3D20703D0026831F870
:10041000231011800068006830BD70B500230AE029
:1004200001EB83042568E4782DBA25F0FF05254308
:10043000046825605B1CB3EB920FF1D394071BD0CB
:1004400002F00304012C03D1066811F82350357023
:10045000022C05D101EB83040568248864BA2C8042
:10046000D243920708D101EB830103680A8852BA8C
:100470001A800268897811700068006870BD704742
:1004800070B5264C4FF48071204600F027FA0646DE
:100490004FF400752946204600F020FA204C2179BF
:1004A00069B394F906104FF000034A1C03D036B12B
:1004B000E27932B108E016B1A071E37104E0FF21E6
:1004C00001E081F00101A17194F90620511C1FD0B7
:1004D00082421BD1E3719AB1124E0122217A304639
:1004E00000F001FA207A0022C04381B2304600F0C9
:1004F000FAF9627A80214FF0904000F0F4F907E0B9
:1005000007490931481E02F091FF01E00120E07126
:100510002846BDE8704000F0FFB800000008004821
:10052000000000200004004830B51F23012505FA13
:1005300003F40C4201D15B1EF9D27AB1082A09D02A
:10054000102A04D0182A09D1072B05D206E0082B5F
:1005500002D203E0102B01D3012030BD03685961A2
:100560000068816821F0180111438160002030BDCE
:1005700070B504460020257F0346012D0BD00125D0
:10058000257702266677266A012E10D0022E12D019
:10059000032E14D106E0022070BD266851F82030E9
:1005A0003360401C9042F8D32068036807E020467F
:1005B000FFF733FF02E02046FFF718FF0346657799
:1005C00000202077184670BD2DE9F0410446002038
:1005D000257F0346012D10D0012525770226667759
:1005E0002668B76847F00107B760266A012E11D068
:1005F000022E13D0032E15D107E00220BDE8F081B2
:10060000266851F820303360401C9042F8D32068AF
:10061000036807E02046FFF700FF02E02046FFF7EF
:10062000E5FE03466577002020771846E6E70000E0
:1006300010B5040010D0607F20B90020207720463C
:1006400000F030F802206077207938B1D4E9021246
:100650002046FFF769FF48B1012010BD216810480E
:1006600048612068816821F0180181606079A0B13B
:1006700020692168086120688168626921F0600151
:100680001143816020688168A26921F080011143D3
:10069000816001206077002010BD4FF0FF30E8E757
:1006A000B71DC10408B500680649884208D106484C
:1006B000416941F040014161406900F04000009013
:1006C00008BD0000003002400010024010B590F854
:1006D00021100024022903D004218163012418E0A1
:1006E00001680A6822F00E020A6001680A6822F0B6
:1006F00001020A6090F84020012303FA02F1C26B64
:10070000516080F82130002180F82010416B01B148
:100710008847204610BD7047044910B50A68024258
:1007200002D00860FFF7F7FF10BD0000140401407D
:100730002DE9F84FDFF88091002209F1040A0AF14F
:10074000040B4FF00F080BF1040EADE001269640AC
:10075000334070D04C68022C01D0122C11D1D40837
:1007600000EB84073D6A5407E40E08FA04FC25EA0E
:100770000C05D1F810C00CFA04FC4CEA050CC7F8C3
:1007800020C007685400032591F804C0A5400CF070
:10079000030CAF430CFA04FC4CEA070CC0F800C091
:1007A0004F68012F05D0022F03D0112F01D0122F37
:1007B00011D18768D1F80CC0AF430CFA04FC4CEAA5
:1007C000070CC0F808C04768B7430E79C6F3001697
:1007D00096403E434660C668AE438D68A5403543AB
:1007E000C5604C68E4005ED5344CA56945F0010550
:1007F000A561A46922F0030504F001040094304CC3
:100800002E19B7689407250F08FA05F4A743B0F12D
:10081000904F04D02B4CA04203D101241CE00024B3
:100820001AE0294CA04201D1022415E0274CA04235
:1008300002D1032410E036E0254CA04201D104246B
:100840000AE0244CA04201D1052405E0224CA0423C
:1008500001D1062400E00724AC403C43B460D9F841
:1008600000404D464E689C43F60300D51C432C6067
:10087000DAF8004055464E689C43B60300D51C4349
:100880002C60DBF800405D464E689C43F60200D5C4
:100890001C432C60DEF8004075464E689C43B6024F
:1008A00000D51C432C60521C0B6833FA02F47FF411
:1008B0004DAFBDE8F88F0000000401400010024079
:1008C000000001400004004800080048000C0048F7
:1008D0000010004800140048001800480069084053
:1008E00000D0012070470AB1816170478162704772
:1008F0000148006870470000880000200248016835
:10090000491C01607047000088000020074810B5AE
:10091000016841F010010160032000F089F8002017
:1009200000F006F800F018F8002010BD002002408A
:1009300010B5044607484FF47A710068B0FBF1F037
:1009400000F0D6FD00222146501E00F051F8002094
:1009500010BD00008C0000201E4808B5816941F0E0
:1009600001018161816901F001010091C16941F0DA
:100970008051C161C06900F080500090032000F0F8
:1009800057F8002211466FF00B0000F031F80022FA
:1009900011466FF00A0000F02BF8002211466FF0AC
:1009A000090000F025F800221146501F00F020F841
:1009B00000221146101F00F01BF800221146901E65
:1009C00000F016F80022BDE808401146501E00F065
:1009D0000FB800000010024000F01F0201219140FA
:1009E0004009800000F1E020C0F8001170470000CD
:1009F000F0B40E4B1B68C3F30223C3F10704042CAD
:100A000000D904241D1D072D01D2002300E0DB1EA8
:100A1000012606FA04F56D1E0D409D409E40761E8F
:100A2000164045EA0601F0BC01F0CEBC0CED00E03A
:100A3000064A00F0070110684FF6FF03184040EA2D
:100A40000120034908431060704700000CED00E0EE
:100A50000000FA052DE9F84F044600689F4DC003D9
:100A60007ED5E8690026C00008D4E86940F08050CF
:100A7000E861E869012600F080500090984801681C
:100A8000C90511D40168804641F480710160FFF707
:100A90002FFF074604E0FFF72BFFC01B642835D863
:100AA000D8F80000C005F6D5286A10F4407052D07E
:100AB000A18801F4407181424DD0286A4FF48037FB
:100AC00097FAA7F1B1FA81F18B0086494FF001083E
:100AD0000B4420F44070C3F8008497FAA7F3B3FAEC
:100AE00083F301EB83010022C1F800242862C007D0
:100AF00031D0FFF7FDFE074641F2883A4FF0020978
:100B000007E0FFF7F5FEC11B514502D90320BDE800
:100B1000F88F99FAA9F0B0FA80F040F04000494609
:100B2000B8EB501F01D128680BE091FAA1F0B0FAA0
:100B300080F040F04000B1EB501F01D1286A00E086
:100B4000686A99FAA9F1B1FA81F101F01F0108FA76
:100B500001F21042D5D0286A616820F4407000E0AC
:100B600006E0084328621EB1E86920F08050E86181
:100B70002078C00705D0286BA16820F00300084347
:100B800028632078800705D5286BE16820F4403081
:100B9000084328632078400705D5286B216920F495
:100BA0004020084328632078800605D5286BE1693A
:100BB00020F01000084328632068800305D568688A
:100BC000616D20F48000084368602078400605D5F8
:100BD000286B216A20F02000084328632068400326
:100BE00005D5286B616A20F040000843286320780F
:100BF000000705D5286B616920F44010084328637D
:100C00002078C00605D5286BA16920F44000084370
:100C100028632088800505D56868216B20F40000D2
:100C2000084368602078000605D5E86AA16A20F4C8
:100C3000F8700843E8622088C00505D5E86AE16AD3
:100C400020F478500843E8622088C00405D5286B5A
:100C5000616B20F48070084328632088800405D5E8
:100C6000286B216C20F40070084328632068C002C0
:100C700005D5286BA16B20F080700843286320689D
:100C8000800205D5286BE16B20F0007008432863D3
:100C90002068400205D5286B616C20F48060084311
:100CA00028632068000205D5286BA16C20F4006041
:100CB000084328632068C00105D5286BE16C20F447
:100CC0000050084328632068800105D5286B216DFA
:100CD00020F4004008432863002018E70010024079
:100CE00000700040000042422DE9F047DFF86881C3
:100CF00004460E46D8F8000000F00700B0420CD2BF
:100D0000D8F8001021F007013143C8F80010D8F8D6
:100D1000000000F00700B04273D120784F4F8007E9
:100D200005D57868A16820F0F00008437860207845
:100D3000C00755D06068012201280CD0022828D0B5
:100D4000022393FAA3F1B1FA81F141F0200149099C
:100D500004D0396803E04FF40033F2E7796A93FA7C
:100D6000A3F3B3FA83F303F01F039A40114248D070
:100D7000796821F0030101437960FFF7B9FD054669
:100D8000606841F2883101280CD00228894615D0CC
:100D900022E04FF00073D4E7FFF7AAFD411B49455D
:100DA00001D916E089467868C0F381000128F3D1A3
:100DB00016E0FFF79DFD411B49450AD87868C0F34E
:100DC00081000228F5D10BE0FFF792FD411B494558
:100DD00002D90320BDE8F087786810F00C0FF3D13A
:100DE000D8F80010404601F00701B1420BD9016864
:100DF00021F0070131430160006800F00700B042B4
:100E000001D00120E6E72078400705D57868E16841
:100E100020F4E060084378602078000706D5786801
:100E2000216920F4605040EAC100786000F052F877
:100E30007968F02292FAA2F201F0F001B2FA82F29D
:100E4000D140074A515CC840064908600020FFF7BE
:100E50006FFD0020BEE700000020024000100240AD
:100E60001C3600088C000020014800687047000014
:100E70008C00002008480949006849684FF4E06286
:100E800092FAA2F201F4E061B2FA82F2D140044A8D
:100E9000515CC840704700008C00002000100240E8
:100EA0002C36000808480949006849684FF4605228
:100EB00092FAA2F201F46051B2FA82F2D140044AED
:100EC000515CC840704700008C00002000100240B8
:100ED0002C360008124B10B55968124801F00C026C
:100EE000042A1CD0082A1AD14FF4701494FAA4F4DE
:100EF00001F47012B4FA84F4E2400B4CDB6AA25C99
:100F00000F2494FAA4F403F00F03B4FA84F4E3403A
:100F1000054CC9031034E35CB0FBF3F0504310BD43
:100F20000010024000127A00FC3500082DE9F84F4D
:100F300004460078F74EC0074FF0010538D07068BE
:100F40004FF40038C0F38100012819D07068C0F355
:100F50008100022804D17068C0F3C13002280FD08C
:100F60006068B0F5803F24D010B1B0F5A02F2AD032
:100F7000306820F480303060306820F480201BE03E
:100F800098FAA8F0B0FA80F040F02000400901D0B3
:100F9000306800E0706A98FAA8F1B1FA81F101F0C6
:100FA0001F0105FA01F108424BD06068002877D094
:100FB00047E0306840F480303060606818B3FFF775
:100FC00097FC074609E0306840F480203060F0E785
:100FD000FFF78EFCC01B64287DD898FAA8F0B0FA01
:100FE00080F040F02000400901D0306800E0706AD5
:100FF00098FAA8F1B1FA81F101F01F0105FA01F1A7
:101000000842E5D01DE0FFF773FC074604E0FFF758
:101010006FFCC01B6428DFD898FAA8F0B0FA80F003
:1010200040F02000400901D0306800E0706A98FA72
:10103000A8F1B1FA81F101F01F0105FA01F10842AE
:10104000E5D12078DFF8D08280074FF0000B4FF019
:1010500002073FD570684FF0F80A10F00C0F15D05A
:101060007068C0F38100022804D17068C0F3C130F9
:1010700001280BD0E06878B395FAA5F0B0FA80F0BB
:1010800048F82050FFF734FC81462CE097FAA7F08F
:10109000B0FA80F040F02000400902D0306801E052
:1010A00089E0706A97FAA7F1B1FA81F101F01F01A6
:1010B00005FA01F1084202D0E06801287BD13068CE
:1010C0009AFAAAF22169B2FA82F220F0F80091406D
:1010D000084330604DE053E126E0FFF709FCA0EB48
:1010E0000900022897D897FAA7F0B0FA80F040F0EC
:1010F0002000400901D0306800E0706A97FAA7F13B
:10110000B1FA81F101F01F0105FA01F10842E4D0C2
:1011100030689AFAAAF220F0F8012069B2FA82F255
:1011200090400143316024E095FAA5F1B1FA81F1D4
:1011300048F821B0FFF7DCFB814605E0FFF7D8FB5C
:10114000A0EB09000228CDD897FAA7F0B0FA80F0FA
:1011500040F02000400901D0306800E0706A97FA42
:10116000A7F1B1FA81F101F01F0105FA01F108427E
:10117000E4D1207800076AD56069A0B395FAA5F09C
:10118000B0FA80F008EB8000C0F88054FFF7B0FBA5
:10119000814605E0FFF7ACFBA0EB09000228A1D8CF
:1011A00097FAA7F0B0FA80F040F06000B5EB501F5E
:1011B00002D130680CE06CE197FAA7F0B0FA80F049
:1011C00040F06000B7EB501F01D1306A00E0706A58
:1011D00097FAA7F1B1FA81F101F01F0105FA01F2C6
:1011E0001042D7D033E0FFE795FAA5F1B1FA81F1CB
:1011F00008EB8101C1F880B4FFF77AFB814605E076
:10120000FFF776FBA0EB090002289CD897FAA7F01D
:10121000B0FA80F040F06000B5EB501F01D13068AB
:101220000BE097FAA7F0B0FA80F040F06000B7EB5F
:10123000501F01D1306A00E0706A97FAA7F1B1FA45
:1012400081F101F01F0105FA01F21042D8D1207896
:10125000400772D5F0694FF0000AC00009D4F06968
:1012600040F08050F061F0694FF0010A00F08050CA
:1012700000902A480168C90511D4016841F48071C1
:101280000160FFF735FB814605E0FFF731FBA0EB7E
:101290000900642874D821480068C005F5D5A06805
:1012A00001280AD008B1052811D0306A20F00100C9
:1012B0003062306A20F0040002E0306A40F0010041
:1012C0003062A06860B3FFF713FB81460CE0306A20
:1012D00040F004003062F0E7FFF70AFBA0EB0901E1
:1012E00041F2883081424BD897FAA7F0B0FA80F0EB
:1012F00040F04000B5EB501F01D1306812E097FA82
:10130000A7F0B0FA80F040F04000B7EB501F08D1D2
:10131000306A07E0001002400000424200700040C6
:101320000CE0706A97FAA7F1B1FA81F101F01F01A0
:1013300005FA01F21042CFD02EE034E0FFF7D8FAE0
:10134000814607E0FFF7D4FAA0EB090141F28830AB
:10135000814215D897FAA7F0B0FA80F040F040002B
:10136000B5EB501F01D130680CE097FAA7F0B0FA46
:1013700080F040F04000B7EB501F02D1306A01E02E
:101380008DE0706A97FAA7F1B1FA81F101F01F01BF
:1013900005FA01F21042D5D1BAF1000F03D0F0697D
:1013A00020F08050F061A06998B37168C1F38101A9
:1013B00002296ED002284FF0807158460BD091FA66
:1013C000A1F1B1FA81F148F82100FFF791FA044642
:1013D0004FF0007766E0894691FAA1F1B1FA81F108
:1013E000C24648F82100FFF783FAA84607464FF0A7
:1013F000007504E0FFF77CFAC01B02284FD895FA6D
:10140000A5F0B0FA80F040F02000400902D030682A
:1014100001E05CE0706A95FAA5F1B1FA81F101F0A2
:101420001F0208FA02F10842E4D1F06A616A20F072
:101430000F000843F062D4E907100843716821F4F3
:1014400076110843706099FAA9F0B0FA80F0474627
:101450004AF82080FFF74CFA044604E0FFF748FA08
:10146000001B02281BD895FAA5F0B0FA80F040F0D6
:101470002000400901D0306800E0706A95FAA5F1BB
:10148000B1FA81F101F01F0107FA01F10842E5D03C
:101490001DE01EE0FFF72CFA001B022802D90320F2
:1014A000BDE8F88F97FAA7F0B0FA80F040F020007E
:1014B000400901D0306800E0706A97FAA7F1B1FAEC
:1014C00081F101F01F0105FA01F10842E2D100208B
:1014D000E6E70120E4E74FF0E0210428086903D0A3
:1014E00020F004000861704740F00400FAE77047FC
:1014F00010B5401EB0F1807F01D3012010BD4FF028
:10150000E02460610F21601700F05EFF0020A06101
:1015100007202061002010BD10B5FFF7E8FF10BDC7
:101520007047704730B590F83C20012A22D0012244
:1015300080F83C200268536894680F4DAA4205D099
:101540000E4DAA4202D00E4DAA4203D123F47005DB
:101550004B682B4323F070050B6889682B4324F0FC
:1015600080042143536002689160002180F83C10A0
:10157000084630BD022030BD002C0140003401403F
:101580000050014010B5040003D094F83D0010B1A4
:1015900007E0012010BD002084F83C00204600F048
:1015A0000DF8022084F83D00211D206800F0C0FFE6
:1015B000012084F83D00002010BD000008B500683F
:1015C0001449B0F1804F14D0134A904220D1C86919
:1015D00040F00200C861C869002200F002000090DB
:1015E00011461D20FFF704FA1D20BDE80840FFF753
:1015F000F3B9C86940F00100C861C869002200F071
:101600000100009011461C20FFF7F2F91C20ECE7C6
:1016100008BD000000100240000400400168CA68D4
:1016200042F00102CA600068016841F001010160F6
:10163000002070470168CA6822F00102CA60006891
:10164000016A41F21112114207D1016A921011424E
:1016500003D1016821F00101016000207047000002
:1016600070B5044690F83C00012817D0012584F895
:101670003C50022084F83D0020688268354E32409C
:1016800022F47F4282600868502838D00DDC202880
:101690005AD005DC90B3102842D152E0022070BD30
:1016A000302854D040283BD140E060282FD070280B
:1016B0000CD0B0F5805F03D0B0F5005F30D112E000
:1016C00020688168234A703211400AE0CB68D1E972
:1016D0000121206800F08EFF20688168314041F0D0
:1016E000770181601CE0CB68D1E90121206800F01E
:1016F00081FF2068816841F48041F2E71EE0CA68FA
:101700004968206800F088FF5021206806E0CA6818
:101710004968206800F091FF6021206800F074FFA4
:1017200084F83D50002084F83C0070BDCA684968C8
:10173000206800F071FF40212068EFE70021206859
:10174000ECE710212068E9E720212068E6E7302156
:101750002068E3E788FFFEFF704770B50446006825
:1017600001694FF00005C943890715D4C168C94311
:10177000890711D4E91E0161012020772068806962
:101780008007204602D0FFF7E7FF04E000F098F85A
:10179000204600F096F8257720680169C94349077B
:1017A00017D4C168C943490713D46FF0040101611C
:1017B000022020772068806910F4407F204602D004
:1017C000FFF7CAFF04E000F07BF8204600F079F84C
:1017D000257720680169C943090716D4C168C94340
:1017E000090712D46FF008010161042020772068F6
:1017F000C0698007204602D0FFF7AEFF04E000F08A
:101800005FF8204600F05DF8257720680169C9433C
:10181000C90617D4C168C943C90613D46FF01001B3
:101820000161082020772068C06910F4407F2046BD
:1018300002D0FFF791FF04E000F042F8204600F0EC
:1018400040F8257720680169C943C90708D1C168F4
:10185000C943C90704D1891E0161204600F032F84E
:1018600020680169C943090609D4C168C94309064A
:1018700005D46FF0800101612046FFF751FE20681A
:101880000169C943490609D4C168C943490605D459
:101890006FF040010161204600F015F820680169F1
:1018A000C94389060BD4C168C943890607D46FF0C0
:1018B000200101612046BDE87040FFF732BE70BDD7
:1018C00070477047704770477047704770B502683F
:1018D0000446D069116810F00F0508D1830606D5BB
:1018E0008B0604D52046BDE8704000F06FBF9368BA
:1018F000002D66D003F0010501F490762E4360D0F0
:10190000C60707D0CE0505D501261662E26E42F065
:101910000102E266820708D5DA0706D026680222AD
:101920003262E26E42F00402E266420708D5DA074C
:1019300006D0236804221A62E26E42F00202E266D6
:1019400002070AD501F020022A4306D023680822A4
:101950001A62E26E42F00802E266E26E002A29D0C4
:10196000800604D5880602D5204600F02FFFE06EE1
:10197000000703D42068806840061CD5204600F08C
:101980000AFF20688168490611D5816821F040016D
:101990008160606E58B11C494163606EFEF796FE2F
:1019A000002807D0606E416BBDE8704008472046B4
:1019B000FFF78BFF70BD2046FFF787FF0020E06632
:1019C00070BDC5020ED55B020CD54FF480101062BD
:1019D000202084F8690084F86A002046BDE8704041
:1019E000FFF772BF020606D50A0604D52046BDE8F9
:1019F000704001F011B84006E2D54806E0D5204617
:101A0000BDE8704000F0D5BE8327000810B5040083
:101A100003D094F8690010B107E0012010BD002048
:101A200084F86800204600F027F8242084F8690034
:101A30002068016821F001010160204600F002FFEA
:101A40000128EBD0606A10B1204600F008FE206843
:101A5000416821F4904141602068816821F02A01A9
:101A600081602068016841F0010101602046BDE805
:101A7000104000F058BE000000B500680E4987B065
:101A8000884217D10D48C16941F40031C161C06974
:101A9000694600F4003005900C200090022001906F
:101AA0000020029003200390072004904FF0904004
:101AB000FEF73EFE07B000BD0044004000100240AB
:101AC00090F86A30202B3FD1B9B1B2B190F86830AC
:101AD000012B39D0012380F868304165A0F85820E7
:101AE000A0F85A208168FF22B1F5805F07D07F23DC
:101AF00051B1B1F1805F0CD010E001207047016955
:101B000021B940F2FF1107E00169D1B9A0F85C20CA
:101B100004E00169A9B13F21A0F85C100021C16671
:101B2000222280F86A2080F8681001688A6842F0F2
:101B300001028A600068016841F490710160002030
:101B40007047A0F85C30E9E70220704770472DE944
:101B5000F843044690F869001E4617460D462028B3
:101B60004DD1CDB1C7B194F86800012847D001200C
:101B700084F868004FF00008C4F86C80212084F8D5
:101B800069005034FEF7B4FE24F8027B814624F845
:101B900052794FF4805718E00120BDE8F883B4F87B
:101BA0005200401EA4F852004B46002280212046DD
:101BB000009600F062FFA0B9A068B84201D1206988
:101BC00088B115F8010B21680885B4F85200002887
:101BD000E5D14B46002240212046009600F04DFF03
:101BE00030B10320D9E735F8020BC0F30800EAE76B
:101BF000202084F8690084F868800020CDE7022066
:101C0000CBE77047FEE7000070B52D48016A002958
:101C100054D02C4EB17C082902D1F17C88290ED0F9
:101C200000250021016228A000F0EAFF307E643820
:101C3000052836D2DFE800F0403E3C3A0500012599
:101C4000EFE728A000F0DCFF0024315D2CA000F0BD
:101C5000D7FF641C062CF8D32AA000F0D1FF002483
:101C60003019817926A000F0CBFF641C062CF7D335
:101C70002AA000F0C5FF002408E00DB104B9022439
:101C8000F068015D29A000F0BBFF641C707C317C12
:101C9000000200EB45000844A042EED824A000F06A
:101CA000AFFFF068BDE8704001F038BA2248F6E7AF
:101CB0002248F4E72248F2E72248F0E770BD00002E
:101CC0001C000020AC0700200D0A52656365697690
:101CD00065642061206E6577206672616D650D0A0E
:101CE0000000000044657374696E6174696F6E2052
:101CF000416464726573732069733A2000000000C8
:101D0000257800000D0A536F757263652041646485
:101D1000726573732069733A200000000D0A5061E8
:101D2000796C6F61642069733A20000025630000BC
:101D30000D0A0D0A00000000AC390008D838000870
:101D4000403900087C3800082DE9F04701F038FAE6
:101D5000874F0024854D0028786B4FF065084FF0C1
:101D6000010A05F5E16633D008B1FC637C63B86B0A
:101D7000072807D201F0FAF9AA2808D1B86B401C4D
:101D8000B86329E007D101F0F1F9AB2801D0BC63B9
:101D900022E03C63F2E7386B50B140F2F2518842E6
:101DA0000DD201F0E3F9396B6854491C39630CE03A
:101DB00001F0DCF92870386B401C386305E086F8C8
:101DC0001880BC63C7F810A03C63C7F834A003E0D8
:101DD00010B1F86B401CF863F86BA0F51C5110397A
:101DE0007AD1FC6368207C63A1463076386B40284A
:101DF00001D24046B1E05F4901225E4881F805907A
:101E00005A49FEF7E1FB00F0FF0828783070012402
:101E10007BE0291901225748FEF7AAFB00F0FF08D2
:101E2000601E042802D9A01F052802D8285D30555D
:101E30006AE0102C06D14D48407C082802D1287C4D
:101E4000882812D0A4F11000012846D886F81290F4
:101E500086F81390687C3074297C717400EB012043
:101E6000F86201F05FFAF0604EE08820F07408201C
:101E7000B074697D3174287D7074022202EB0020F9
:101E80000844F86201F04EFAF060A97C0170F16834
:101E9000E87C48703549012211313648FEF768FB6D
:101EA0003249012212313348FEF762FB2F490122E9
:101EB00013313048FEF75CFB2C49012214312D48C8
:101EC000FEF756FB2949012215312A48FEF750FB3F
:101ED00000F0FF08152417E046E0162C09DBF86A2D
:101EE0001630844205D2687C082802D1287C8828D4
:101EF00028D0122C08DBF86A1230844204D2295D03
:101F0000F268A4F112001154641C386B001F844263
:101F1000FFF47FAF386B284410F8043D427803EBA0
:101F200002228378C0781B0400EB800404EBC0001D
:101F300003EB40001044C0B2404508D087F8099038
:101F400064200AE0295DA4F11400F268DBE7F86A76
:101F500040F2DA51884201D966203076C7F83890CD
:101F6000C7F810A0C7F83090BDE8F087A4000020A3
:101F70001C000020980600202DE9F041A24C01270A
:101F80000025E069002875D0A07A0028FBD0E56123
:101F9000606C18B19D48FFF74DFB6564607850B1E7
:101FA000002080B2A0812A280ED2482001F0BAF980
:101FB00020642A200DE0A069417C626A0902007C4D
:101FC00001EB82010844ECE71E3001F0ABF920641C
:101FD000A089C4E912051D26D2E0072A04D2216C8B
:101FE0004FF0AA008854C8E004D1216C4FF0AB0038
:101FF000C871C2E0A2F10801052914D8607848B17F
:10200000206E104410F8080C216C082A885403D064
:10201000114414E0A069F4E77C48012264380831D7
:10202000FEF7D2FA4AE0A2F10E0105290BD8764854
:102030006430104410F80E1C206C81548DE07348FD
:102040000122643838E0A2F11401032979D9182A51
:1020500011D0192A21D0617809B11A2A32D01A2A4E
:1020600071D3A3891A339A426DD2A069837C082B5D
:1020700030D034E08EE0A069817C082902D1C17C97
:10208000882908D0407C216C012208765F48216CA9
:102090006438183110E08820F5E7A069817C0829B0
:1020A00002D1C17C88290BD0007C216C01224876AA
:1020B0005648216C64381931FEF75AFA20655CE005
:1020C0000820F2E7206C81762278C2764577057782
:1020D000E66452E0C37C882B01D11A2A09D0A16D95
:1020E000C068511A405C216C8854E16C206C01443A
:1020F000A5E7226C9176237802F11A01D376427C0F
:102100008A70007CC870414801226438FEF730FABA
:102110002065E16C206C012201443C48491C643874
:10212000FEF726FA2065E16C206C01220144374855
:10213000891C6438FEF71CFA20651E20E664A06541
:10214000D3E708E0FFE7A1891A318A4207D300F1FB
:102150001A018A4203D2206C855481186FE700F17E
:102160001A018A4209D3216C94F8502001441D3091
:102170008A76CD760D774D77E064E06C401CE064A4
:10218000D4E9120200F11E018A42FFF426AF67650E
:10219000E56401E0606DF8B101F008F8E0B1D4E960
:1021A00012011E30814217D2E06D68B1A069817CB6
:1021B000082909D1C07C882806D1607820B9134845
:1021C0004038FFF72BFAE565E16C206C405C01F0CC
:1021D0005BF9E06C401CE064D4E912011E308142DE
:1021E0000FD1206C00F09AFFA564A58125651A2007
:1021F000E564C4E91550A5720448FFF70FFA676457
:10220000E765BDE8F08100001C000020FC0600200E
:102210002DE9F0412E4886B0416941F40031416119
:10222000416901F400310591416941F48021416126
:10223000416901F480210591416941F40021416126
:1022400040694FF0904700F4002005900022802163
:102250003846FEF748FBDFF87C800022FF2140462D
:10226000FEF741FB80200126CDE90006022403256C
:1022700069463846CDE90245FEF75AFAFF20CDE916
:10228000000669464046CDE90245FEF751FA4FF493
:102290007F400025CDE90005694602944046FEF7DF
:1022A00047FA4FF4E070CDE900050B4D6946029402
:1022B0002846FEF73DFA09482102CDE900100294B4
:1022C00069462846FEF734FA06B0BDE8F081000002
:1022D00000100240000400480008004800003110CF
:1022E00010B5124888B04FF08041016009210024E8
:1022F000C0E901140E49C0E903148461FFF742F9F3
:1023000000B1FEE74FF48050039003A90748FFF7A0
:10231000A7F900B1FEE70094694604480294FFF76C
:1023200001F9002800D0FEE708B010BDBC0600206F
:102330007F8D5B0010B5144888B01249016040F2EF
:10234000CF210024C0E9011440F2E731C0E90314B1
:102350008461FFF717F900B1FEE74FF48050039056
:1023600003A90948FFF77CF900B1FEE7009469462C
:1023700005480294FFF7D6F8002800D0FEE708B021
:1023800010BD000000040040FC0600200C4810B501
:102390000A4901604FF416514160002181600C220E
:1023A000C160C0E904128161C16101624162FFF74D
:1023B0002DFB002800D0FEE710BD000000440040C7
:1023C0003C070020FEE770470907090E002806DADF
:1023D00000F00F0000F1E02080F8141D704700F1BC
:1023E000E02080F800147047704770B50D46044631
:1023F000FDF7FCFE291B491C90FBF1F201FB1200CA
:10240000204470BD704710B5FEF778FABDE8104063
:10241000FFF782B830B5A5B0012019901020022531
:102420001A90C002CDE91C504FF4E0100024CDE911
:102430001E04169516A8FEF779FD00B1FEE70F20E1
:10244000CDE920054FF48060CDE92240022120A88B
:102450002494FEF749FC00B1FEE70E480F9400906B
:1024600003940E946846FEF7F5FA00B1FEE7FEF716
:10247000FBFC4FF47A71B0FBF1F0FFF739F8042060
:10248000FFF729F800221146501EFEF7B1FA25B0D9
:1024900030BD0000020030001448016841F47001B2
:1024A00001601348016841F0010101604168114A6F
:1024B000114041600168104A11400160016821F437
:1024C00080210160416821F4FE014160C16A21F070
:1024D0000F01C162016B094A114001630021816053
:1024E0000249C003803908607047000088ED00E0B1
:1024F000001002400CC07FF8FFFFF6FECCFC00FF8E
:10250000034901200870034908600348FFF725B913
:102510002500002030000020BC06002002490120D8
:1025200008700248FFF719B926000020FC060020B9
:102530002DE9F0470268274D274E284F284B294C9C
:102540004FF0804AA84209D0504507D0B04205D08C
:10255000B84203D0984201D0A04204D122F0700CBE
:102560004A6842EA0C02DFF880C0DFF88080DFF8BA
:102570008090A8420FD050450DD0B0420BD0B84249
:1025800009D0984207D0604505D0404503D0484562
:1025900001D0A04203D122F44076CA6832434E698A
:1025A00022F08002324302608A68C2620A68826254
:1025B000A84209D0984207D0604505D0404503D0D5
:1025C000484501D0A04201D109690163012141615F
:1025D000BDE8F087002C01400004004000080040E6
:1025E00000340140005001400040014000440140DF
:1025F0000048014010B5846842EA032224F47F4475
:102600000A432243826010BD826822F070020A43AE
:1026100042F007018160704710B5046A036A23F035
:1026200001030362836923F0F00343EA021324F0F9
:102630000A020A438361026210BD10B5036A23F0E7
:10264000100303628469036A24F4704444EA02328A
:1026500023F0A00343EA01118261016210BD90F8EA
:102660002410C90706D001684A68836A22F4003240
:102670001A434A6090F82410890706D501684A6811
:10268000C36A22F480321A434A6090F82410490742
:1026900006D501684A68036B22F480221A434A6017
:1026A00090F82410090706D501684A68436B22F4A4
:1026B00000421A434A6090F82410C90606D5016802
:1026C0008A68836B22F480521A438A6090F824103F
:1026D000890606D501688A68C36B22F400521A4342
:1026E0008A6090F82410490611D501684A68036C85
:1026F00022F480121A434A60016CB1F5801F06D1A2
:1027000001684A68436C22F4C0021A434A6090F898
:102710002410090606D501684A68806C22F400225C
:1027200002434A607047F8B500250446C566FEF7C7
:10273000DFF80746206800686FF07E46000708D57E
:102740003B4600224FF400112046009600F095F918
:1027500060B92068006840070AD53B4600224FF464
:1027600080012046009600F088F908B10320F8BDEA
:10277000202084F8690084F86A0084F868500020FA
:10278000F8BD10B5406A0021A0F85A10A0F8521008
:10279000FFF79BF810BD01680A6822F490720A6086
:1027A00001688A6822F001028A60202180F86A109C
:1027B000704710B501680A6822F040020A602021C3
:1027C00080F86910FFF71DFA002010BD10B5B0F8B1
:1027D0005C2090F86A300168222B05D0886940F0AF
:1027E00008008861022010BD898C8368B3F5805F82
:1027F00001D103696BB11140426D531C43651170E7
:10280000B0F85A10491E0904090CA0F85A1007D054
:1028100015E0436D11401980416D891C4165EFE75A
:1028200001680A6822F490720A6001688A6822F0DE
:1028300001028A60202180F86A10FFF787F90020E2
:1028400010BD00002DE9F04104461020A368226964
:10285000E6691343626900213243134322680D463F
:102860001668644F3E401E43166022685368E6684F
:1028700023F4405333435360A369226A134322680D
:10288000966826F430661E4396605B4F22685B4B69
:102890000603BA420CD11B6B13F0030306D0012BC5
:1028A0004DD0022B4DD0032B4CD146E0012049E006
:1028B000534FBA420CD11B6B13F440333BD0B3429D
:1028C0003DD0B3F5003F3CD0B3F5403F3AD134E0C2
:1028D0004C4FBA420DD11B6B13F440232BD0B3F5F0
:1028E000802F2CD0B3F5002F2BD0B3F5402F29D15A
:1028F00023E0454FBA420DD11B6B13F440131AD09D
:10290000B3F5801F1BD0B3F5001F1AD0B3F5401FDD
:1029100018D112E03D4FBA4214D11B6B13F440039F
:1029200009D0B3F5800F0AD0B3F5000F09D0B3F585
:10293000400F07D101E0002004E0022002E0042063
:1029400000E00820E7694FF400439F4226D10928A0
:102950001DD2DFE800F00508121C151C1C1C180015
:10296000FEF788FA01E0FEF79DFA4100606801EB8E
:102970005001B1FBF0F081B20AE025496068F6E74A
:10298000FEF7A8FAF1E7606806EB5001F1E70125D0
:1029900021F00F00C1F3420108431CE0092825D2B1
:1029A000DFE800F005080B24102424241C00FEF7A7
:1029B00061FA09E0FEF776FA06E01649606801EB75
:1029C00050010EE0FEF786FA0146606801EB500107
:1029D000B1FBF0F080B22168C86008E0606803EBEA
:1029E0005001B1FBF0F080B2D06000E00125284634
:1029F000BDE8F081F369FFEF0038014000100240AC
:102A00000044004000480040004C0040005000409E
:102A10000024F40000127A0090F86910212901D0F6
:102A200002207047B0F8521021B18168B1F5805F83
:102A30000BD00CE001680A6822F080020A6000688E
:102A4000016841F0400101600BE0016959B1C16CBE
:102A50004A1CC26402680978118530F8521F491E69
:102A6000018000207047C16C02680988C1F3080129
:102A70001185C16C891CC164EFE72DE9F0411E4648
:102A8000174688460446069D1CE0681C1AD025B1EE
:102A9000FDF72EFF801BA84214D92068016821F49D
:102AA000D07101602068816821F0010181602020DF
:102AB00084F8690084F86A00002084F86800032024
:102AC000BDE8F0812068C16938EA010004D0002027
:102AD000B842DAD00020F3E70120F9E7F8B537482B
:102AE0000068808C364DC1B28DF800102846AA7A55
:102AF00000244069012640F2DC5722B1012A1ED091
:102B0000022A51D13BE010B10520687152E01C202F
:102B100000F008FC6861384600F004FC0146686972
:102B200048B129B1C1600476AE726E71AC813BE0F0
:102B300000F0F4FA6C6123A000F066FC34E0287B1E
:102B40001F4B00F001020E33C007995409D0102228
:102B500000211846FDF75CFBAA89696901EB520167
:102B60000870A8890621401C80B2A881B1EB500FE3
:102B70001AD10220A87268716869048214E0028A7E
:102B8000BA4202D9AC7204200DE0C0680D2905D00C
:102B900081546869018A491C018205E08454AC7241
:102BA00068690676032068710A2301226946034892
:102BB000FEF7CDFF0148FEF789FEF8BD3C07002077
:102BC000000000205278206275666665722063619D
:102BD0006C6C6F63206661696C2C2077616974206E
:102BE000666F72206F6C64207265717565737473A3
:102BF00020746F2066696E6973682100FEE700002B
:102C00000FB4054B10B503A9044A029800F01CF854
:102C100010BC5DF814FB0000053100089400002092
:102C200000487047A000002002E008C8121F08C139
:102C3000002AFAD170477047002001E001C1121F3D
:102C4000002AFBD1704700002DE9FF4F8DB00F46E1
:102C50000546002606E025280BD0DDE90F12904737
:102C60006D1C761C28780028F5D111B03046BDE8DF
:102C7000F08F0024A246A1460122EC4900E0044363
:102C800015F8013F203B02FA03F00842F7D12878FB
:102C90002A2810D06FF02F022878A0F130010929DE
:102CA00014D80AEB8A0102EB410144F0020400EB64
:102CB000010A6D1CF0E701CF5FEA000A03D544F476
:102CC0000054CAF1000A44F002046D1C28782E2832
:102CD00017D115F8010F44F004042A280ED06FF024
:102CE0002F022878A0F1300109290AD809EB8901BF
:102CF00002EB410100EB01096D1CF2E757F8049B60
:102D00006D1C28786C280FD006DC4C2817D068285A
:102D10000DD06A2814D104E0742810D07A280FD17D
:102D20000DE044F400140AE044F4801401E044F49B
:102D300040146978814202D104F580146D1C6D1C29
:102D40002A786E2A1FD00CDC632A31D004DC002ADA
:102D50008BD0582A11D1A3E0642A68D0692A0CD1FB
:102D600065E0732A2ED004DC6F2A73D0702A04D158
:102D70009BE0752A6FD0782A6ED01046DDE90F12DD
:102D80009047761C50E1C4F30250022806D0032875
:102D900009D0042801CF09D0066045E101CFF11721
:102DA000C0E9006140E101CF06803DE106703BE1F2
:102DB00017F8040B8DF8000000208DF80100EB4699
:102DC000012003E057F804BB4FF0FF3061074FF0DC
:102DD000000102D40DE008F10101884649450FDAEF
:102DE0008045F8DB1BF808100029F4D108E008F151
:102DF000010188468142FADB1BF808100029F6D150
:102E0000DDE90F23AAEB08008146214600F036F9E0
:102E1000304400EB080604E0DDE90F121BF8010B5B
:102E20009047B8F10108F7D221464846F7E00A2159
:102E3000C4F302534FF0000B0891022B04D001CFD2
:102E4000C117032B09D00AE0FF1D27F00707F7E899
:102E5000020108E032E01FE020E000B2C117042BBD
:102E600001D140B2C117031E71F1000307DA4FF020
:102E7000000CD0EB0C006CEB01012D2302E02305CC
:102E800004D52B238DF82430012303E0E30701D080
:102E90002023F7E7984658E00A2110E010210EE0C1
:102EA00010204FF0000B08900CE010214FF0000BA9
:102EB00044F004044FF00809089103E008214FF0A2
:102EC000000B0891C4F30253022B04D001CF002160
:102ED000032B06D006E0FF1D27F00707F7E80201E5
:102EE00003E080B2042B00D1C0B24FF000082307EA
:102EF0002BD5702A07D0DDF820C08CF0100C5CEACE
:102F00000B0C05D00EE040238DF82430012308E09F
:102F100050EA010306D030238DF824308DF82520A7
:102F200002239846DDF820C08CF0080C5CEA0B0CFC
:102F30000BD150EA010301D1630706D530238DF888
:102F400024304FF00108A9F10109582A04D038A211
:102F50000B9208AA0A920BE03AA2F9E75B46089A9C
:102F6000FDF78EF90B9B9B5C0A9A521E0A92137016
:102F700050EA0102F2D10A98ADEB000000F1200BFB
:102F8000600702D524F4803401E04FF00109D945EF
:102F900002DDA9EB0B0000E0002000EB0B01414437
:102FA0000890AAEB010AE00306D4DDE90F232146CD
:102FB000504600F063F806444FF0000908E009A904
:102FC00011F80900DDE90F12904709F10109761C9B
:102FD000C145F4DBE0030CD5DDE90F232146504663
:102FE00000F04CF8064404E0DDE90F123020904771
:102FF000761C0899481E08900029F5DC08E00A981C
:103000000A990078491C0A91DDE90F129047761C55
:10301000BBF10001ABF1010BF1DC21465046DDE9CB
:103020000F2300F019F806446D1C1BE60928010067
:10303000303132333435363738396162636465662E
:1030400000000000303132333435363738394142F0
:1030500043444546000000002DE9F04104460025A8
:103060001E461746880404D405E039462020B047A0
:103070006D1C641EF9D52846BDE8F0812DE9F041AC
:10308000044600251E469046C80301D5302700E0BF
:103090002027880404D505E041463846B0476D1C1A
:1030A000641EF9D52846BDE8F081000070B5124DC8
:1030B0002868124C8021A0704FF09040FDF70EFC64
:1030C0000F4EE0704FF400713046FDF707FC2071A1
:1030D00080213046FDF702FC60714FF4807130466C
:1030E000FDF7FCFBA07128684021000AE071304622
:1030F000FDF7F4FB207270BD100400481C00002096
:103100000008004813B501231A4669460248FEF735
:103110001EFD00981CBD00003C07002010B50028D3
:1031200021D0114B0022001F196803E0814203D80F
:103130000A4649680029F9D152B11368841A9C42A1
:1031400004D1006818441060104602E0506000E0AE
:10315000186039B102680B1A934203D10B681A4404
:1031600002604968416010BD9800002002490022B9
:10317000C8788A70704700000000002004490022CF
:1031800048694A61002801D006224A717047000050
:10319000000000200448406918B1007E08B10120F9
:1031A00070470020704700000000002003480078AE
:1031B00008B1002070470120704700000000002087
:1031C0000148807870470000000000200EB5FDF730
:1031D0009DFBFFF71FF9FFF71BF8FFF7D7F83448FF
:1031E0003249002401600471447144610125056283
:1031F0008461FDF71DFA00B1FEE7FFF771F8FFF7F4
:1032000099F8002211461720FDF7F2FB1720FDF771
:10321000E3FB002211462620FDF7EAFB2620FDF7FE
:10322000DBFB24A0FFF7ECFC3248C178437902793C
:103230008DE80E008378427801782F48FFF7E0FC94
:103240001CA0FFF7DDFC2DA0FFF7DAFC324805706B
:103250003248416941F0400141614069144900F040
:1032600040002431009009686FF0010008611C20C3
:1032700000F058F81F496439086644740474082142
:1032800081748821C1740A4801222549A430FEF7BF
:1032900017FC00F07DF8FFF709FF00F001F9FEF7D9
:1032A0006BFEFEF751FDFEF7AFFCECE7003002408D
:1032B000980600202D2D2D2D2D2D2D2D2D2D2D2D34
:1032C0002D2D2D2D2D2D2D2D2D2D2D2D2D2D2D2D2E
:1032D0002D2D2D2D2D2D2D2D2D2D2D2D2D2D2D2D1E
:1032E0002D2D2D2D2D2D2D2D2D2D2D2D2D2D2D2D0E
:1032F0000D0A0000800000200C3A0008507265732F
:103300007320616E79206B657920746F207374610E
:1033100072740D0A0000000004000020001002403A
:1033200018000020F0B50B30154D20F007010024E7
:10333000144A0FE003688B420BD38B4205D95E1A07
:1033400043184768C3E9006700E04368136002C0A0
:1033500004E0021D10680028ECD12046002802D1AC
:10336000286808B10020F0BD064A07481060074AE7
:10337000121A22F00702C0E9002401202860D7E7D2
:103380009C00002098000020CC070020C8E7002007
:103390003EB5154C0025607907281DD2DFE800F006
:1033A0001C04061D161F210010480CE060694379BB
:1033B0000279C1788DE80E008378427801780C4854
:1033C000FFF71EFC0B48FFF71BFC04E040F2DC514A
:1033D0000948FFF715FC65713EBD0848F3E708484A
:1033E000F1E70848EFE7000000000020003800087F
:1033F0003C380008EC36000830370008C0370008B9
:10340000BC3600088037000810B5044601E0FFF71D
:1034100079FE14F8010B04490028F8D1BDE81040EA
:103420000A20FFF76FBE0000940000202DE9F04154
:10343000124F0C46064680213846FDF74FFA0546E6
:1034400040213846FDF74AFA0D49012220B10D48C6
:103450000068000AC8708A7023780020012B0AD007
:10346000002D06D10B78002B03D04B7833702270DF
:103470000870BDE8F0812070FBE7000000080048FC
:10348000000000201004004804490A780AB1002016
:10349000704748700120087070470000000000204D
:1034A0002DE9F0413C4EDFF8F4800025306901241D
:1034B00048B108F1F0073561B87C082802D1F87CE2
:1034C000882803D03462B06A90BB24E0F8680078A2
:1034D00078B175613148B462FEF7ACF8D8F80000F5
:1034E0004562F8684078C0F101012DA0FFF788FB24
:1034F000E9E77470F461284A34620020316E643266
:10350000B36903449B790B540F18135CBB71401CC7
:103510000828F5DBD7E7706A50B1706900282ED013
:103520001E487561FEF786F8D8F80000456225E070
:10353000FFE7B06930B1C068FFF7F0FDB069FFF791
:10354000EDFDB561FFF726FE002818D0FFF716FE47
:10355000B06103210120FEF748FF012811D019A016
:103560007462FFF74DFBB069082181748821C17432
:10357000B5623078C0F1010030707570F461BDE85B
:10358000F08117A07562FFF73BFB7570B462B069FC
:10359000C5748574F2E700001C000020BC06002002
:1035A0000D0A41434B206F66206672616D652025D0
:1035B00064207761732072656365697665642E0D9A
:1035C0000A0000000D0A0D0A73656E64696E6720BB
:1035D0006E6577207061636B65740D0A00000000F2
:1035E0000D0A0D0A73656E64696E67206F6C642046
:1035F0007061636B65740D0A00000000020304052E
:10360000060708090A0B0C0D0E0F10100102030427
:1036100005060708090A0B0C0D0E0F10000000002C
:103620000000000001020304060708090000000072
:1036300001020304004040404040404040404141BE
:103640004141414040404040404040404040404077
:103650004040404040050202020202020202020211
:10366000020202020220202020202020202020020E
:10367000020202020202909090909090101010109E
:10368000101010101010101010101010101010103A
:1036900002020202020288888888888808080808CE
:1036A000080808080808080808080808080808089A
:1036B0000202020240000000353600080D446C6C26
:1036C000206275737921207761697420666F72209A
:1036D000446C6C20746F207265616420746865208E
:1036E00072657175657374210D0A0000456E74650D
:1036F00072207061796C6F616420616E64207468FF
:10370000656E2070726573732027456E746572272D
:1037100020286D61782073697A652069733A2031B9
:1037200035303020627974657321290D0A0000005C
:103730000D0A4572726F7221207061636B6574208F
:103740006F766572666C6F7721202D206D61782011
:1037500073697A65206973202564206279746573C2
:103760002028707265737320616E79206B657920F3
:10377000746F2072657374617274290D0A00000001
:103780000D446C6C20676F742074686520726571DD
:1037900075657374212028707265737320616E796A
:1037A000206B657920746F206275696C64206120DC
:1037B0006E6578742072657175657374290D0A00E1
:1037C0000D0A526571756573742073656E7420748B
:1037D0006F20444C4C20287761697420666F7220FA
:1037E0007472616E736D697373696F6E20746F208C
:1037F000636F6D706C657465292E0D0A0000000002
:10380000456E7465722064657374696E6174696F66
:103810006E204D41432061646472657373202846B5
:103820004F524D4154203D205858585858585858D8
:1038300058585858293A0D0A000000000D0A4465EE
:103840007374696E6174696F6E204D4143206164C9
:1038500064726573732069733A20253032583A25B3
:103860003032583A253032583A253032583A2530DD
:1038700032583A253032580D0A0000000A4F6820AD
:103880006E6F2C2057652063616E27742062656C13
:103890006569766520746869732E204269626920C3
:1038A0006973207374696C6C207072696D65206D2A
:1038B000696E69737465723F20616C736F20435247
:1038C00043207761736E27742076616C69642E2EB5
:1038D0000D0A0D0A000000000D0A4F68206E6F2CC3
:1038E0002057652063616E27742062656C65697678
:1038F0006520746869732E204269626920697320AB
:103900007374696C6C207072696D65206D696E6985
:10391000737465723F20616C736F205061796C6FB6
:103920006164204C656E677468207761736E2774DC
:103930002076616C69642E2E0D0A0D0A00000000CD
:103940000D0A4F68206E6F2C2057652063616E272B
:10395000742062656C6569766520746869732E20D1
:1039600042696269206973207374696C6C2070729B
:10397000696D65206D696E69737465723F20616C55
:10398000736F20546F74616C204672616D65204CBA
:10399000656E677468207761736E27742076616C3A
:1039A00069642E2E0D0A0D0A000000000D0A4F68F2
:1039B000206E6F2C2057652063616E27742062652E
:1039C0006C6569766520746869732E204269626946
:1039D000206973207374696C6C207072696D652046
:1039E0006D696E69737465723F20616C736F2050EE
:1039F0007265616D626C65207761736E27742076E5
:103A0000616C69642E0D0A0D0A000000444C4C20C4
:103A10006973204F6E2120444C4C2077696C6C20D8
:103A20007072696E74205278206461746120616ED6
:103A3000642054782064617461200D0A284D792037
:103A40004D414320616464726573732069733A2049
:103A5000253032583A253032583A253032583A25F6
:103A60003032583A253032583A25303258290D0A2A
:103A700000000000943A000800000020A4000000AC
:103A8000282C0008383B0008A400002024FB00007C
:103A9000382C0008000000000000FF0000000000BB
:103AA0000000000000000000000000000000000016
:103AB0000000000000000000000001000000000005
:103AC00000000000000000000000000000000000F6
:103AD00000000000010000000100000000000000E4
:103AE00000000000000000000000000000000000D6
:103AF00000000000000000000000000000000000C6
:103B000000000000000000001A000000000000009B
:103B100000000000CCCCCCCCCCCC000000000000DD
:103B200000127A0000000000000000000000000009
:083B300000000000000000008D
:040000050800019559
:00000001FF
